:020000040800F2
:1000000000800120411B0008C91A0008D11A00080D
:10001000D91A0008E11A0008E91A000800000000D7
:10002000000000000000000000000000F11A0008BD
:10003000FD1A000800000000091B0008151B00083D
:10004000911B0008911B0008911B0008911B0008E0
:10005000911B0008911B0008911B0008911B0008D0
:10006000911B0008911B0008911B0008911B0008C0
:10007000911B0008911B0008911B0008911B0008B0
:10008000911B0008911B0008911B00080000000054
:10009000000000000000000000000000911B0008AC
:1000A000911B0008911B0008911B0008911B000880
:1000B000211B0008911B0008911B0008911B0008E0
:1000C000911B0008911B0008911B0008911B000860
:1000D000911B0008911B0008911B00080000000004
:1000E000911B0008911B0008911B000800000000F4
:1000F000000000000000000000000000911B00084C
:1001000000000000911B0008911B0008911B0008D3
:1001100000000000000000000000000000000000DF
:10012000911B0008911B0008911B0008911B0008FF
:10013000911B00080000000000000000000000000B
:10014000000000000000000000000000911B0008FB
:10015000911B0008911B0008911B0008911B0008CF
:10016000911B0008911B0008000000000000000027
:10017000000000000000000000000000000000007F
:1001800000000000911B00080000000000000000BB
:04019000911B0008B7
:1001940010B5054C237833B9044B13B10448AFF3BD
:1001A40000800123237010BD0C000020000000001B
:1001B400C439000808B5034B1BB103490348AFF326
:1001C400008008BD0000000010000020C4390008B1
:1001D40081F0004102E000BF83F0004330B54FEAF4
:1001E40041044FEA430594EA050F08BF90EA020F61
:1001F4001FBF54EA000C55EA020C7FEA645C7FEAF4
:10020400655C00F0E2804FEA5454D4EB5555B8BF16
:100214006D420CDD2C4480EA020281EA030382EA87
:10022400000083EA010180EA020281EA0303362D19
:1002340088BF30BD11F0004F4FEA01314FF4801CEC
:100244004CEA113102D0404261EB410113F0004FFE
:100254004FEA03334CEA133302D0524263EB4303B5
:1002640094EA050F00F0A780A4F10104D5F1200E53
:100274000DDB02FA0EFC22FA05F2801841F10001AE
:1002840003FA0EF2801843FA05F359410EE0A5F182
:1002940020050EF1200E012A03FA0EFC28BF4CF0B3
:1002A400020C43FA05F3C01851EBE37101F0004569
:1002B40007D54FF0000EDCF1000C7EEB00006EEB76
:1002C4000101B1F5801F1BD3B1F5001F0CD3490800
:1002D4005FEA30004FEA3C0C04F101044FEA445257
:1002E40012F5800F80F09A80BCF1004F08BF5FEADE
:1002F400500C50F1000041EB045141EA050130BDBE
:100304005FEA4C0C404141EB0101013C28BFB1F5CF
:10031400801FE9D291F0000F04BF01460020B1FA1A
:1003240081F308BF2033A3F10B03B3F120020CDAED
:100334000C3208DD02F1140CC2F10C0201FA0CF0CB
:1003440021FA02F10CE002F11402D8BFC2F1200C30
:1003540001FA02F120FA0CFCDCBF41EA0C019040E6
:10036400E41AA2BF01EB0451294330BD6FEA04042F
:100374001F3C1CDA0C340EDC04F11404C4F120021A
:1003840020FA04F001FA02F340EA030021FA04F32C
:1003940045EA030130BDC4F10C04C4F1200220FA83
:1003A40002F001FA04F340EA0300294630BD21FAC1
:1003B40004F0294630BD94F0000F83F4801306BF87
:1003C40081F480110134013D4EE77FEA645C18BF7B
:1003D4007FEA655C29D094EA050F08BF90EA020F12
:1003E40005D054EA000C04BF1946104630BD91EA0A
:1003F400030F1EBF0021002030BD5FEA545C05D10D
:100404004000494128BF41F0004130BD14F580044B
:100414003CBF01F5801130BD01F0004545F0FE41BF
:1004240041F470014FF0000030BD7FEA645C1ABFF4
:10043400194610467FEA655C1CBF0B46024650EA2B
:10044400013406BF52EA033591EA030F41F4002157
:1004540030BD00BF90F0000F04BF0021704730B5DD
:100464004FF4806404F132044FF000054FF00001B2
:1004740050E700BF90F0000F04BF0021704730B573
:100484004FF4806404F1320410F0004548BF404248
:100494004FF000013EE700BF42004FEAE2014FEA9D
:1004A40031014FEA02701FBF12F07F4393F07F4F78
:1004B40081F06051704732F07F4208BF704793F07B
:1004C4007F4F04BF41F40021704730B54FF460748E
:1004D40001F0004521F000411CE700BF50EA010291
:1004E40008BF704730B54FF000050AE050EA01023A
:1004F40008BF704730B511F0004502D5404261EBAA
:1005040041014FF4806404F132045FEA915C3FF4EA
:10051400D8AE4FF003025FEADC0C18BF03325FEA87
:10052400DC0C18BF033202EBDC02C2F1200300FA38
:1005340003FC20FA02F001FA03FE40EA0E0021FA5D
:1005440002F11444BDE600BF70B54FF0FF0C4CF44B
:10055400E06C1CEA11541DBF1CEA135594EA0C0FFD
:1005640095EA0C0F00F0DEF82C4481EA030621EA38
:100574004C5123EA4C5350EA013518BF52EA033573
:1005840041F4801143F4801338D0A0FB02CE4FF025
:100594000005E1FB02E506F00042E0FB03E54FF055
:1005A4000006E1FB03569CF0000F18BF4EF0010E4D
:1005B400A4F1FF04B6F5007F64F5407404D25FEA49
:1005C4004E0E6D4146EB060642EAC62141EA5551FC
:1005D4004FEAC52040EA5E504FEACE2EB4F1FD0C3E
:1005E40088BFBCF5E06F1ED8BEF1004F08BF5FEABC
:1005F400500E50F1000041EB045170BD06F000466E
:1006040046EA010140EA020081EA0301B4EB5C041A
:10061400C2BFD4EB0C0541EA045170BD41F4801112
:100624004FF0000E013C00F3AB8014F1360FDEBF37
:10063400002001F0004170BDC4F10004203C35DA13
:100644000C341BDC04F11404C4F1200500FA05F396
:1006540020FA04F001FA05F240EA020001F0004237
:1006640021F0004110EBD37021FA04F642EB0601AD
:100674005EEA430E08BF20EAD37070BDC4F10C04D7
:10068400C4F1200500FA04F320FA05F001FA04F29B
:1006940040EA020001F0004110EBD37041F1000187
:1006A4005EEA430E08BF20EAD37070BDC4F1200592
:1006B40000FA05F24EEA020E20FA04F301FA05F2FA
:1006C40043EA020321FA04F001F0004121FA04F2A2
:1006D40020EA020000EBD3705EEA430E08BF20EA72
:1006E400D37070BD94F0000F0FD101F000464000AC
:1006F40041EB010111F4801F08BF013CF7D041EA2E
:10070400060195F0000F18BF704703F00046520031
:1007140043EB030313F4801F08BF013DF7D043EA02
:100724000603704794EA0C0F0CEA135518BF95EAB8
:100734000C0F0CD050EA410618BF52EA4306D1D13F
:1007440081EA030101F000414FF0000070BD50EA5E
:10075400410606BF1046194652EA430619D094EAE8
:100764000C0F02D150EA013613D195EA0C0F05D1D2
:1007740052EA03361CBF104619460AD181EA030126
:1007840001F0004141F0FE4141F470014FF00000DE
:1007940070BD41F0FE4141F4780170BD70B54FF079
:1007A400FF0C4CF4E06C1CEA11541DBF1CEA1355F9
:1007B40094EA0C0F95EA0C0F00F0A7F8A4EB0504DB
:1007C40081EA030E52EA03354FEA013100F08880D2
:1007D4004FEA03334FF0805545EA131343EA12639B
:1007E4004FEA022245EA111545EA10654FEA002650
:1007F4000EF000419D4208BF964244F1FD0404F509
:10080400407402D25B084FEA3202B61A65EB030564
:100814005B084FEA32024FF480104FF4002CB6EB21
:10082400020E75EB030E22BFB61A754640EA0C00A1
:100834005B084FEA3202B6EB020E75EB030E22BFE1
:10084400B61A754640EA5C005B084FEA3202B6EB22
:10085400020E75EB030E22BFB61A754640EA9C00E1
:100864005B084FEA3202B6EB020E75EB030E22BFB1
:10087400B61A754640EADC0055EA060E18D04FEA6F
:10088400051545EA16754FEA06164FEAC30343EA0F
:1008940052734FEAC2025FEA1C1CC0D111F4801FDC
:1008A4000BD141EA00014FF000004FF0004CB6E7D5
:1008B40011F4801F04BF01430020B4F1FD0C88BF74
:1008C400BCF5E06F3FF6AFAEB5EB030C04BFB6EB7F
:1008D400020C5FEA500C50F1000041EB045170BD72
:1008E4000EF0004E4EEA113114EB5C04C2BFD4EB9F
:1008F4000C0541EA045170BD41F480114FF0000E23
:10090400013C90E645EA060E8DE60CEA135594EA9E
:100914000C0F08BF95EA0C0F3FF43BAF94EA0C0FA1
:100924000AD150EA01347FF434AF95EA0C0F7FF416
:1009340025AF104619462CE795EA0C0F06D152EA6A
:1009440003353FF4FDAE1046194622E750EA41064E
:1009540018BF52EA43067FF4C5AE50EA41047FF45F
:100964000DAF52EA43057FF4EBAE12E74FEA4102C2
:10097400B2F1E04324BFB3F5001CDCF1FE5C0DD9F9
:1009840001F0004C4FEAC0024CEA5070B2F1004F43
:1009940040EB830008BF20F00100704711F0804F46
:1009A40021D113F13872BCBF01F00040704741F40B
:1009B40080114FEA5252C2F11802C2F1200C10FA0F
:1009C4000CF320FA02F018BF40F001004FEAC123F3
:1009D4004FEAD32303FA0CFC40EA0C0023FA02F397
:1009E4004FEA4303CCE77FEA625307D150EA01336D
:1009F4001EBF4FF0FE4040F44000704701F000403D
:100A040040F0FE4040F40000704700BF80F000401A
:100A140002E000BF81F0004142001FBF5FEA4103D2
:100A240092EA030F7FEA226C7FEA236C6AD04FEAD2
:100A34001262D2EB1363C1BFD21841404840414017
:100A4400B8BF5B42192B88BF704710F0004F40F4C9
:100A5400000020F07F4018BF404211F0004F41F4E5
:100A6400000121F07F4118BF494292EA030F3FD0B1
:100A7400A2F1010241FA03FC10EB0C00C3F12003C4
:100A840001FA03F100F0004302D5494260EB400053
:100A9400B0F5000F13D3B0F1807F06D340084FEABE
:100AA400310102F10102FE2A51D2B1F1004F40EBB3
:100AB400C25008BF20F0010040EA0300704749001B
:100AC40040EB0000013A28BFB0F5000FEDD2B0FAB8
:100AD40080FCACF1080CB2EB0C0200FA0CF0AABFDB
:100AE40000EBC25052421843BCBFD0401843704779
:100AF40092F0000F81F4000106BF80F4000001327F
:100B0400013BB5E74FEA41037FEA226C18BF7FEA55
:100B1400236C21D092EA030F04D092F0000F08BF97
:100B24000846704790EA010F1CBF0020704712F07E
:100B34007F4F04D1400028BF40F00040704712F1BD
:100B440000723CBF00F50000704700F0004343F022
:100B5400FE4040F4000070477FEA226216BF084658
:100B64007FEA23630146420206BF5FEA412390EA1B
:100B7400010F40F4800070474FF0000304E000BF11
:100B840010F0004348BF40425FEA000C08BF7047C2
:100B940043F0964301464FF000001CE050EA010286
:100BA40008BF70474FF000030AE000BF50EA01029B
:100BB40008BF704711F0004302D5404261EB410188
:100BC4005FEA010C02BF84460146002043F0B643AD
:100BD40008BFA3F18053A3F50003BCFA8CF2083AD2
:100BE400A3EBC25310DB01FA02FC634400FA02FCDB
:100BF400C2F12002BCF1004F20FA02F243EB0200E2
:100C040008BF20F00100704702F1200201FA02FC43
:100C1400C2F1200250EA4C0021FA02F243EB020036
:100C240008BF20EADC7070474FF0FF0C1CEAD0527A
:100C34001EBF1CEAD15392EA0C0F93EA0C0F6FD03B
:100C44001A4480EA010C400218BF5FEA41211ED019
:100C54004FF0006343EA501043EA5111A0FB013105
:100C64000CF00040B1F5000F3EBF490041EAD371DA
:100C74005B0040EA010062F17F02FD2A1DD8B3F156
:100C8400004F40EBC25008BF20F00100704790F0C5
:100C9400000F0CF0004C08BF49024CEA502040EA17
:100CA40051207F3AC2BFD2F1FF0340EAC2507047DD
:100CB40040F400004FF00003013A5DDC12F1190F1B
:100CC400DCBF00F000407047C2F10002410021FA8D
:100CD40002F1C2F1200200FA02FC5FEA310040F1A5
:100CE400000053EA4C0308BF20EADC70704792F01E
:100CF400000F00F0004C02BF400010F4000F013A56
:100D0400F9D040EA0C0093F0000F01F0004C02BF50
:100D1400490011F4000F013BF9D041EA0C018FE7BF
:100D24000CEAD15392EA0C0F18BF93EA0C0F0AD0C5
:100D340030F0004C18BF31F0004CD8D180EA0100EB
:100D440000F00040704790F0000F17BF90F0004F84
:100D5400084691F0000F91F0004F14D092EA0C0F66
:100D640001D142020FD193EA0C0F03D14B0218BFF9
:100D7400084608D180EA010000F0004040F0FE403F
:100D840040F40000704740F0FE4040F440007047DB
:100D94004FF0FF0C1CEAD0521EBF1CEAD15392EA5A
:100DA4000C0F93EA0C0F69D0A2EB030280EA010C4A
:100DB40049024FEA402037D04FF0805343EA1111E3
:100DC40043EA10130CF000408B4238BF5B0042F141
:100DD4007D024FF4000C8B4224BF5B1A40EA0C00E6
:100DE400B3EB510F24BFA3EB510340EA5C00B3EB18
:100DF400910F24BFA3EB910340EA9C00B3EBD10F06
:100E040024BFA3EBD10340EADC001B0118BF5FEA57
:100E14001C1CE0D1FD2A3FF650AF8B4240EBC25080
:100E240008BF20F0010070470CF0004C4CEA502041
:100E34007F32C2BFD2F1FF0340EAC250704740F490
:100E440000004FF00003013A37E792F0000F00F082
:100E5400004C02BF400010F4000F013AF9D040EA00
:100E64000C0093F0000F01F0004C02BF490011F494
:100E7400000F013BF9D041EA0C0195E70CEAD1538C
:100E840092EA0C0F08D142027FF47DAF93EA0C0F73
:100E94007FF470AF084676E793EA0C0F04D14B0257
:100EA4003FF44CAF08466EE730F0004C18BF31F009
:100EB400004CCAD130F000427FF45CAF31F0004303
:100EC4007FF43CAF5FE700BF4FF0FF3C06E000BF9C
:100ED4004FF0010C02E000BF4FF0010C4DF804CDBF
:100EE4004FEA40024FEA41037FEA226C18BF7FEACF
:100EF400236C11D001B052EA530C18BF90EA010FD1
:100F040058BFB2EB030088BFC81738BF6FEAE1705F
:100F140018BF40F0010070477FEA226C02D15FEAFB
:100F2400402C05D17FEA236CE4D15FEA412CE1D067
:100F34005DF8040B704700BF844608466146FFE72E
:100F44000FB5FFF7C9FF002848BF10F1000F0FBD10
:100F54004DF808EDFFF7F4FF0CBF012000205DF809
:100F640008FB00BF4DF808EDFFF7EAFF34BF01208E
:100F740000205DF808FB00BF4DF808EDFFF7E0FF27
:100F840094BF012000205DF808FB00BF4DF808ED78
:100F9400FFF7D2FF94BF012000205DF808FB00BFDB
:100FA4004DF808EDFFF7C8FF34BF012000205DF8BD
:100FB40008FB00BF4FEA4002B2F1FE4F0FD34FF0DF
:100FC4009E03B3EB12620DD94FEA002343F00043B2
:100FD40010F0004F23FA02F018BF404270474FF060
:100FE4000000704712F1610F01D1420205D110F0E7
:100FF400004008BF6FF0004070474FF0000070479A
:1010040042000ED2B2F1FE4F0BD34FF09E03B3EB6E
:10101400126209D44FEA002343F0004323FA02F09A
:1010240070474FF00000704712F1610F01D1420286
:1010340002D14FF0FF3070474FF00000704700BFFF
:1010440053B94AB9002908BF00281CBF4FF0FF312B
:101054004FF0FF3000F06AB9ADF1080C6DE904CE31
:1010640000F006F8DDF804E0DDE9022304B070477F
:101074002DE9F047089D0C46002B4ED194468C4533
:101084008646B2FA82F262D94AB1C2F12003914093
:1010940020FA03F30CFA02FC194300FA02FE4FEAA9
:1010A4001C471FFA8CF6B1FBF7F44FEA1E4307FB0B
:1010B400141143EA014304FB06F199420AD91CEBDB
:1010C400030304F1FF3080F01281994240F20F8152
:1010D400023C6344591A1FFA8EF3B1FBF7F007FB85
:1010E400101143EA014300FB06F69E420AD91CEBA9
:1010F400030300F1FF3180F0FC809E4240F2F9804E
:10110400634402389B1B40EA044000211DB1D340D4
:101114000022C5E90032BDE8F0878B4205D90DB144
:10112400C5E9000100210846F5E7B3FA83F1002977
:1011340046D1A34202D39042C0F0F080861A64EBF9
:1011440003030120002DE6D0C5E90063E3E7002A8C
:1011540040F09080A1EB0C044FEA1C481FFA8CF776
:101164000121B4FBF8F64FEA1E4308FB164443EA98
:10117400044307FB06F0984208D91CEB030306F16D
:10118400FF3402D2984200F2CD8026461C1A1FFA80
:101194008EF3B4FBF8F008FB104443EA044300FB6D
:1011A40007F79F4208D91CEB030300F1FF3402D276
:1011B4009F4200F2B0802046DB1B40EA0640A5E7D0
:1011C400C1F120068B4022FA06F71F4320FA06FCE1
:1011D40004FA01F343EA0C03F44000FA01F8380C72
:1011E4004FEA1349B4FBF0FE1FFA87FC00FB1E44D0
:1011F40049EA04440EFB0CF9A14502FA01F20AD9AA
:101204003C190EF1FF3A80F08480A14540F28180C0
:10121400AEF1020E3C44A4EB09041FFA83F9B4FBBB
:10122400F0F300FB134449EA044403FB0CFCA4451B
:1012340007D93C1903F1FF3067D2A44565D9023BB5
:101244003C4443EA0E40A0FB0293A4EB0C049C42F2
:10125400CE469C4651D34ED055B1B8EB0E0364EB49
:101264000C0404FA06F6CB401E43CC40C5E90064E6
:10127400002150E7C2F1200320FA03F10CFA02FC2A
:1012840024FA03F394400C434FEA1C4800FA02FE8C
:101294001FFA8CF7B3FBF8F008FB1031230C43EA78
:1012A400014300FB07F1994208D91CEB030300F149
:1012B400FF362CD299422AD9023863445B1AA4B26D
:1012C400B3FBF8F108FB113344EA034401FB07F3D1
:1012D400A34208D91CEB040401F1FF3613D2A34244
:1012E40011D902396444E41A41EA004139E7044659
:1012F400F0E6084606E7C845AED2B9EB020E63EB4A
:10130400070C0138A8E73146EDE7034699E7304674
:10131400D4E7D6467FE7634402384DE706462346C2
:1013240008460FE7023E634430E700BF704700BF42
:1013340080B588B002AF00F02BFC00F071F800F02B
:101344004FF900F0D7F82D4B00221A703B1D0022F4
:101354002B49184600F0B0F93B1D2A4A4FF0000112
:10136400184600F0DBF94FF47A7000F07FFC381D6A
:10137400C82300934FF07E53234A244900F0B8FA5F
:101384000A2000F073FC3B1D4FF00001184600F0EA
:10139400FFF9012202211E4800F01CFF4FF47A706D
:1013A40000F064FC3B1D1B49184600F0F1F90122D2
:1013B4004021194800F00EFF4FF47A7000F056FCFB
:1013C4003B1D1649184600F0E3F90022022110489B
:1013D40000F000FF4FF47A7000F048FC3B1D09490F
:1013E400184600F0D5F9002240210B4800F0F2FE27
:1013F4004FF47A7000F03AFC00BFC4E7700000209C
:1014040028000020000034430000C8420000A0422D
:101414000008024000003442000002400000B442D0
:1014240080B594B000AF07F12003302200211846A4
:1014340002F09AFA07F10C0300221A605A609A60CB
:10144400DA601A610023BB60284B1B6C274A43F007
:1014540080531364254B1B6C03F08053BB60BB6843
:1014640000237B60224B1B6823F44043204A43F44F
:10147400004313601E4B1B6803F440437B607B688E
:1014840001233B624FF480337B620223BB634FF43E
:101494008003FB6304233B6440237B640223BB641B
:1014A4000423FB6407F12003184600F0ABFE034657
:1014B400002B01D000F0FAF80F23FB6002233B61FC
:1014C40090237B614FF48053BB610023FB6107F1E0
:1014D4000C030021184601F00DF90346002B01D03E
:1014E40000F0E4F800BF5037BD4680BD003802402C
:1014F4000070004080B58EB000AF07F128030022D1
:101504001A605A609A60DA6007F1200300221A60B8
:101514005A603B1D00221A605A609A60DA601A61B0
:101524005A619A612D4B4FF080421A602B4B042272
:101534005A602A4B00229A60284B4FF6FF12DA6059
:10154400264B00221A61254B00229A61234801F0A0
:10155400C3FA0346002B01D000F0A8F84FF48053DF
:10156400BB6207F1280319461C4801F0BFFD03467E
:10157400002B01D000F09AF8184801F0FCFA034659
:10158400002B01D000F092F800233B6200237B6221
:1015940007F120031946114802F068F90346002BAD
:1015A40001D000F083F860237B600023BB6000233C
:1015B400FB6000237B613B1D00221946074801F0B4
:1015C400D3FC0346002B01D000F070F8034800F070
:1015D40041FA00BF3837BD4680BD00BF2800002057
:1015E40080B588B000AF07F10C0300221A605A607E
:1015F4009A60DA601A610023BB60294B1B6B284A8E
:1016040043F080031363264B1B6B03F08003BB6022
:10161400BB6800237B60224B1B6B214A43F004030D
:1016240013631F4B1B6B03F004037B607B68002375
:101634003B601B4B1B6B1A4A43F001031363184BAB
:101644001B6B03F001033B603B6800220221154839
:1016540000F0C0FD00224021134800F0BBFD02232E
:10166400FB6001233B6100237B610023BB6107F125
:101674000C0319460B4800F02BFC4023FB600123AC
:101684003B6100237B610023BB6107F10C03194616
:10169400054800F01DFC00BF2037BD4680BD00BFDB
:1016A40000380240000802400000024080B400AF4D
:1016B40072B600BF00BFFDE780B584B000AFF8602C
:1016C400B9607A60FB68002B01D101231FE0FB683D
:1016D400BA681A60FB687A685A60FB684FF00002C7
:1016E4009A60FB684FF00002DA60FB680A4A1A61EC
:1016F4007968B86801F098FA0346002B01D00123F9
:1017040005E04FF00001F86800F042F800231846A5
:101714001037BD4680BD00BF00002A4380B485B0A9
:1017240000AFF860B9607A60FB68002B06D0FB68F4
:10173400BA68DA60FB687A681A6100E000BF14379F
:10174400BD4680BC7047000080B582B000AF7860B1
:101754007868FEF7A1FE4FF000020B4BFFF71EF86E
:1017640002460B46104619464FF00002074BFEF79F
:1017740035FD02460B4610461946FFF7F7F80346B7
:1017840018460837BD4680BD008056400000E03F43
:1017940080B586B000AF786039607B68002B00F0BC
:1017A400A0807B689B6819463868FFF735F90346C3
:1017B4003B607B681B6919463868FFF7F1FB0346F9
:1017C400002B02D07B681B690CE07B68DB68194640
:1017D4003868FFF7C7FB0346002B02D07B68DB6841
:1017E40000E03B683B607B681B681B68DB6A18464B
:1017F400FFF7C2F903467B613868FFF7A5FF38613C
:1018040079693869FFF710FA034638491846FFF733
:10181400BFFA0346FB60F868FFF7CCFB0346B3F559
:10182400803F0DDAF868FFF7C5FB0346002B05DBA4
:10183400F868FFF7E5FB03469BB203E0002301E0F1
:101844004FF6FF737B817B685B680C2B34D801A255
:1018540052F823F08D180008BD180008BD180008C0
:10186400BD18000899180008BD180008BD18000824
:10187400BD180008A5180008BD180008BD18000808
:10188400BD180008B11800087B681B681B687A89BA
:101894005A6327E07B681B681B687A899A6321E096
:1018A4007B681B681B687A89DA631BE07B681B68AA
:1018B4001B687A891A6415E07B681B681B687A893F
:1018C4005A637B681B681B687A899A637B681B6808
:1018D4001B687A89DA637B681B681B687A891A64D7
:1018E40000E000BF1837BD4680BD00BF0000A04126
:1018F40080B586B000AFF860B9607A603B60FB6881
:10190400002B57D07968B868FFF740FB0346002BDB
:1019140050D14FF07E513868FFF724FB0346002B6B
:1019240048D1BB687B611AE07969F868FFF730FF3A
:1019340039687869FFF770F803467B6179687869DC
:10194400FFF72EFB0346002B01D07B6800E07B6988
:101954007B613B6A002B02D0386A00F087F9796812
:101964007869FFF7FFFA0346002BDDD11AE07969A5
:10197400F868FFF70DFF39687869FFF74BF80346FD
:101984007B61B9687869FFF7EDFA0346002B01D053
:10199400BB6800E07B697B613B6A002B02D0386A3C
:1019A40000F064F9B9687869FFF7FAFA0346002B86
:1019B400DDD100E000BF1837BD4680BD80B483B0E0
:1019C40000AF00237B600F4B5B6C0E4A43F48043F3
:1019D40053640C4B5B6C03F480437B607B68002393
:1019E4003B60084B1B6C074A43F080531364054B60
:1019F4001B6C03F080533B603B6800BF0C37BD4653
:101A040080BC70470038024080B584B000AF786075
:101A14007B681B68B3F1804F15D10023FB600C4B2E
:101A24001B6C0B4A43F001031364094B1B6C03F05A
:101A34000103FB60FB68002200211C2000F011FA66
:101A44001C2000F02AFA00BF1037BD4680BD00BF3D
:101A54000038024080B588B000AF786007F10C030D
:101A640000221A605A609A60DA601A617B681B6807
:101A7400B3F1804F1DD10023BB60104B1B6B0F4A89
:101A840043F0010313630D4B1B6B03F00103BB60B5
:101A9400BB680123FB6002233B6100237B610023BD
:101AA400BB610123FB6107F10C031946044800F0F4
:101AB4000FFA00BF2037BD4680BD00BF003802408A
:101AC4000000024080B400AF00BFFDE780B400AF67
:101AD40000BFFDE780B400AF00BFFDE780B400AFF6
:101AE40000BFFDE780B400AF00BFFDE780B400AFE6
:101AF40000BFBD4680BC704780B400AF00BFBD4688
:101B040080BC704780B400AF00BFBD4680BC704746
:101B140080B500AF00F08EF800BF80BD80B500AF87
:101B2400024801F031F900BF80BD00BF2800002049
:101B340080B400AF00BFBD4680BC7047DFF834D02E
:101B4400FFF7F6FF0C480D490D4A002302E0D45874
:101B5400C4500433C4188C42F9D30A4A0A4C0023F3
:101B640001E013600432A242FBD301F005FFFFF74A
:101B7400DFFB704700800120000000200C000020E3
:101B8400FC3900080C00002078000020FEE700006B
:101B940080B500AF0E4B1B680D4A43F4007313600D
:101BA4000B4B1B680A4A43F480631360084B1B68A1
:101BB400074A43F480731360032000F047F90F20B1
:101BC40000F008F8FFF7FAFE0023184680BD00BFB6
:101BD400003C024080B582B000AF7860124B1A68B6
:101BE400124B1B7819464FF47A73B3FBF1F3B2FB33
:101BF400F3F3184600F05FF90346002B01D00123EC
:101C04000EE07B680F2B0AD8002279684FF0FF3072
:101C140000F027F9064A7B681360002300E00123E3
:101C240018460837BD4680BD00000020080000208B
:101C34000400002080B400AF054B1B781A46054B06
:101C44001B681344034A136000BFBD4680BC704741
:101C5400080000207400002080B400AF024B1B6811
:101C64001846BD4680BC70477400002080B584B01F
:101C740000AF7860FFF7F0FFB8607B68FB60FB683B
:101C8400B3F1FF3F05D00A4B1B781A46FB68134497
:101C9400FB6000BFFFF7E0FF0246BB68D31AFA6897
:101CA4009A42F7D800BF00BF1037BD4680BD00BFC1
:101CB4000800002080B485B000AF78607B6803F032
:101CC4000703FB600C4BDB68BB60BA684FF6FF038D
:101CD4001340BB60FB681A02BB68134343F0BF6345
:101CE40043F40033BB60044ABB68D36000BF1437BD
:101CF400BD4680BC704700BF00ED00E080B400AF7B
:101D0400044BDB681B0A03F007031846BD4680BC7E
:101D1400704700BF00ED00E080B483B000AF03461D
:101D2400FB7197F90730002B0BDBFB7903F01F02E3
:101D3400064997F907305B09012000FA02F241F8DD
:101D4400232000BF0C37BD4680BC704700E100E093
:101D540080B483B000AF03463960FB7197F9073054
:101D6400002B0ADB3B68DAB20C4997F90730120101
:101D7400D2B20B4483F800230AE03B68DAB2084984
:101D8400FB7903F00F03043B1201D2B20B441A7621
:101D940000BF0C37BD4680BC704700BF00E100E0C7
:101DA40000ED00E080B489B000AFF860B9607A60FB
:101DB400FB6803F00703FB61FB69C3F10703042B12
:101DC40028BF0423BB61FB690433062B02D9FB69DA
:101DD400033B00E000237B614FF0FF32BB6902FA52
:101DE40003F3DA43BB681A407B699A404FF0FF3132
:101DF4007B6901FA03F3D9437B680B40134318460C
:101E04002437BD4680BC704780B582B000AF78608F
:101E14007B68013BB3F1807F01D301230FE00A4AC1
:101E24007B68013B53600F214FF0FF30FFF790FFB9
:101E3400054B00229A60044B07221A6000231846BF
:101E44000837BD4680BD00BF10E000E080B582B019
:101E540000AF78607868FFF72DFF00BF0837BD46F4
:101E640080BD80B586B000AF0346B9607A60FB736D
:101E740000237B61FFF742FF78617A68B96878696B
:101E8400FFF790FF024697F90F3011461846FFF707
:101E94005FFF00BF1837BD4680BD80B582B000AF7C
:101EA4000346FB7197F907301846FFF735FF00BF6B
:101EB4000837BD4680BD80B582B000AF78607868D1
:101EC400FFF7A2FF034618460837BD4680BD000051
:101ED40080B489B000AF7860396000237B6100234F
:101EE4003B610023BB610023FB6159E10122FB69D3
:101EF40002FA03F37B613B681B687A6913403B6118
:101F04003A697B699A4240F048813B685B6803F018
:101F14000303012B05D03B685B6803F00303022B2A
:101F240030D17B689B68BB61FB695B00032202FACA
:101F340003F3DB43BA691340BB613B68DA68FB69AE
:101F44005B0002FA03F3BA691343BB617B68BA69A5
:101F54009A607B685B68BB610122FB6902FA03F348
:101F6400DB43BA691340BB613B685B681B0903F040
:101F74000102FB6902FA03F3BA691343BB617B688C
:101F8400BA695A603B685B6803F00303032B17D0FC
:101F94007B68DB68BB61FB695B00032202FA03F325
:101FA400DB43BA691340BB613B689A68FB695B0019
:101FB40002FA03F3BA691343BB617B68BA69DA6056
:101FC4003B685B6803F00303022B23D1FB69DA0847
:101FD4007B68083253F82230BB61FB6903F00703C6
:101FE4009B000F2202FA03F3DB43BA691340BB617F
:101FF4003B681A69FB6903F007039B0002FA03F3C9
:10200400BA691343BB61FB69DA087B680832B969B2
:1020140043F822107B681B68BB61FB695B000322E9
:1020240002FA03F3DB43BA691340BB613B685B68A4
:1020340003F00302FB695B0002FA03F3BA6913437A
:10204400BB617B68BA691A603B685B6803F4403320
:10205400002B00F0A2800023FB60564B5B6C554ABA
:1020640043F480435364534B5B6C03F48043FB6041
:10207400FB68514AFB699B08023352F82330BB6169
:10208400FB6903F003039B000F2202FA03F3DB4313
:10209400BA691340BB617B68484A934219D07B6894
:1020A400474A934213D07B68464A93420DD07B68DB
:1020B400454A934207D07B68444A934201D10423A2
:1020C40008E0072306E0032304E0022302E00123DF
:1020D40000E00023FA6902F0030292009340BA6917
:1020E4001343BB613449FB699B080233BA6941F865
:1020F4002320374B9B68BB613B69DB43BA691340C0
:10210400BB613B685B6803F48013002B03D0BA699E
:102114003B691343BB612E4ABB6993602C4BDB685C
:10212400BB613B69DB43BA691340BB613B685B68D5
:1021340003F40013002B03D0BA693B691343BB615A
:10214400234ABB69D360224B5B68BB613B69DB43B9
:10215400BA691340BB613B685B6803F40033002B2E
:1021640003D0BA693B691343BB61194ABB69536025
:10217400174B1B68BB613B69DB43BA691340BB6106
:102184003B685B6803F48033002B03D0BA693B6976
:102194001343BB610E4ABB691360FB690133FB61E6
:1021A400FB690F2B7FF6A2AE00BF00BF2437BD46EC
:1021B40080BC7047003802400038014000000240F3
:1021C4000004024000080240000C024000100240DB
:1021D400003C014080B483B000AF78600B467B8044
:1021E40013467B707B78002B03D07A887B689A61D6
:1021F40003E07B881A047B689A6100BF0C37BD46F4
:1022040080BC704780B586B000AF78607B68002BD7
:1022140001D1012367E27B681B6803F00103002BF3
:1022240075D0884B9B6803F00C03042B0CD0854BB2
:102234009B6803F00C03082B12D1824B5B6803F4F8
:102244008003B3F5800F0BD17E4B1B6803F400337E
:10225400002B5BD07B685B68002B57D1012342E2E3
:102264007B685B68B3F5803F06D1764B1B68754A83
:1022740043F4803313601DE07B685B68B3F5A02FE3
:102284000CD1704B1B686F4A43F4802313606D4B71
:102294001B686C4A43F4803313600BE0694B1B6882
:1022A400684A23F480331360664B1B68654A23F441
:1022B400802313607B685B68002B13D0FFF7CCFC92
:1022C400386108E0FFF7C8FC02463B69D31A642B67
:1022D40001D9032307E25B4B1B6803F40033002B93
:1022E400F0D014E0FFF7B8FC386108E0FFF7B4FC65
:1022F40002463B69D31A642B01D90323F3E1514B02
:102304001B6803F40033002BF0D100E000BF7B68AE
:102314001B6803F00203002B63D04A4B9B6803F055
:102324000C03002B0BD0474B9B6803F00C03082BCA
:102334001CD1444B5B6803F48003002B16D1414B42
:102344001B6803F00203002B05D07B68DB68012BBC
:1023540001D00123C7E13B4B1B6823F0F8027B68E3
:102364001B69DB00374913430B603AE07B68DB6889
:10237400002B20D0344B01221A60FFF76DFC38612A
:1023840008E0FFF769FC02463B69D31A022B01D926
:102394000323A8E12B4B1B6803F00203002BF0D0AE
:1023A400284B1B6823F0F8027B681B69DB00254976
:1023B40013430B6015E0244B00221A60FFF74CFC1A
:1023C400386108E0FFF748FC02463B69D31A022B48
:1023D40001D9032387E11B4B1B6803F00203002B85
:1023E400F0D17B681B6803F00803002B36D07B68B0
:1023F4005B69002B16D0154B01221A60FFF72CFCE9
:10240400386108E0FFF728FC02463B69D31A022B27
:1024140001D9032367E10B4B5B6F03F00203002B2D
:10242400F0D01BE0094B00221A60FFF715FC38615D
:102434000EE0FFF711FC02463B69D31A022B07D9C1
:10244400032350E10038024000004742800E474217
:10245400884B5B6F03F00203002BEAD17B681B6897
:1024640003F00403002B00F097800023FB75814BDD
:102474001B6C03F08053002B0FD10023BB607D4BFA
:102484001B6C7C4A43F0805313647A4B1B6C03F03F
:102494008053BB60BB680123FB75774B1B6803F457
:1024A4008073002B18D1744B1B68734A43F48073F8
:1024B4001360FFF7D1FB386108E0FFF7CDFB02465C
:1024C4003B69D31A022B01D903230CE16A4B1B6825
:1024D40003F48073002BF0D07B689B68012B06D13A
:1024E400644B1B6F634A43F0010313671CE07B6872
:1024F4009B68052B0CD15F4B1B6F5E4A43F00403B2
:1025040013675C4B1B6F5B4A43F0010313670BE0DB
:10251400584B1B6F574A23F001031367554B1B6F2E
:10252400544A23F0040313677B689B68002B15D07F
:10253400FFF792FB38610AE0FFF78EFB02463B6926
:10254400D31A41F28832934201D90323CBE0494B99
:102554001B6F03F00203002BEED014E0FFF77CFBAB
:1025640038610AE0FFF778FB02463B69D31A41F26F
:102574008832934201D90323B5E03E4B1B6F03F02D
:102584000203002BEED1FB7D012B05D1394B1B6CD3
:10259400384A23F0805313647B689B69002B00F056
:1025A400A180344B9B6803F00C03082B5CD07B6840
:1025B4009B69022B41D1314B00221A60FFF74CFB7F
:1025C400386108E0FFF748FB02463B69D31A022B47
:1025D40001D9032387E0274B1B6803F00073002B0A
:1025E400F0D17B68DA697B681B6A1A437B685B6A93
:1025F4009B011A437B689B6A5B08013B1B041A43DB
:102604007B68DB6A1B061B4913434B601B4B01228F
:102614001A60FFF721FB386108E0FFF71DFB024653
:102624003B69D31A022B01D903235CE0114B1B68CD
:1026340003F00073002BF0D054E0104B00221A601A
:10264400FFF70AFB386108E0FFF706FB02463B6927
:10265400D31A022B01D9032345E0064B1B6803F070
:102664000073002BF0D13DE07B689B69012B07D1FF
:10267400012338E000380240007000406000474207
:102684001B4B5B68FB607B689B69012B28D0FB6854
:1026940003F480027B68DB699A4221D1FB6803F072
:1026A4003F027B681B6A9A421AD1FA6847F6C073E4
:1026B40013407A68526A9201934211D1FB6803F481
:1026C40040327B689B6A5B08013B1B049A4207D13A
:1026D400FB6803F070627B68DB6A1B069A4201D0D8
:1026E400012300E0002318461837BD4680BD00BF13
:1026F4000038024080B584B000AF786039607B68F0
:10270400002B01D10123CCE0684B1B6803F00703C5
:102714003A689A420CD9654B3A68D2B21A70634B44
:102724001B6803F007033A689A4201D00123B8E01A
:102734007B681B6803F00203002B20D07B681B68B6
:1027440003F00403002B05D0594B9B68584A43F40B
:10275400E05393607B681B6803F00803002B05D0EB
:10276400534B9B68524A43F460439360504B9B68BD
:1027740023F0F0027B689B684D4913438B607B68B0
:102784001B6803F00103002B44D07B685B68012BBA
:1027940007D1474B1B6803F40033002B19D10123E5
:1027A4007FE07B685B68022B03D07B685B68032B4C
:1027B40007D13F4B1B6803F00073002B09D10123A1
:1027C4006FE03B4B1B6803F00203002B01D1012394
:1027D40067E0374B9B6823F003027B685B683449EE
:1027E40013438B60FFF738FAF8600AE0FFF734FA16
:1027F4000246FB68D31A41F28832934201D903237B
:102804004FE02B4B9B6803F00C027B685B689B00DA
:102814009A42EBD1254B1B6803F007033A689A42AE
:102824000CD2224B3A68D2B21A70204B1B6803F0C8
:1028340007033A689A4201D0012332E07B681B689F
:1028440003F00403002B08D0194B9B6823F4E052D7
:102854007B68DB68164913438B607B681B6803F055
:102864000803002B09D0124B9B6823F460427B6859
:102874001B69DB000E4913438B6000F021F802460C
:102884000B4B9B681B0903F00F030A49CB5C22FA2C
:1028940003F3094A1360094B1B681846FFF79AF9BA
:1028A400002318461037BD4680BD00BF003C0240DF
:1028B40000380240DC390008000000200400002039
:1028C4002DE9B04F94B000AF00237B640023FB6478
:1028D40000233B640023BB647C4B9B6803F00C0324
:1028E400082B0DD0082B00F2E780002B02D0042B1C
:1028F40003D0E1E0764BBB64E1E0764BBB64DEE001
:10290400724B5B6803F03F037B64704B5B6803F4BA
:102914008003002B65D06D4B5B689B090022BB6371
:10292400FA63BB6BC3F308033B6300237B63D7E900
:102934000C4522462B464FF000004FF00001590190
:1029440041EAD261500102460B462146511A3961CF
:10295400294663EB01037B614FF000024FF0000353
:10296400D7E904AB59468B01514643EA916351467A
:102974008A01D446B2EB0C08594663EB01094FF0C7
:1029840000024FF000034FEAC90343EA58734FEAC9
:10299400C80290469946234618EB0303BB602B46B6
:1029A40049EB0303FB604FF000024FF00003D7E94B
:1029B400024529464B0220462946044643EAD4539D
:1029C40001464A02104619467B6C0022BB62FA6239
:1029D400D7E90A23FEF734FB02460B461346FB6491
:1029E4005CE03A4B5B689B09002218461146C0F331
:1029F40008033B6200237B62D7E9088942464B46C1
:102A04004FF000004FF00001590141EAD26150013A
:102A140002460B46C446B2EB0C0A404649468C4675
:102A240063EB0C0B4FF000024FF000034FEA8B13E3
:102A340043EA9A634FEA8A12B2EB0A0463EB0B058A
:102A44004FF000024FF00003EB0043EA5473E2003E
:102A540014461D460346E3183B600B4645EB03034F
:102A64007B604FF000024FF00003D7E90045294690
:102A74008B0220462946044643EA945301468A02BF
:102A8400104619467B6C0022BB61FA61D7E9062324
:102A9400FEF7D6FA02460B461346FB640B4B5B6803
:102AA4001B0C03F0030301335B003B64FA6C3B6CC7
:102AB400B2FBF3F3BB6402E0054BBB6400BFBB6C29
:102AC40018465037BD46BDE8B08F00BF00380240FD
:102AD4000024F40000127A0080B582B000AF786060
:102AE4007B68002B01D1012341E07B6893F83D30E2
:102AF400DBB2002B06D17B68002283F83C20786887
:102B0400FEF782FF7B68022283F83D207B681A6807
:102B14007B6804331946104600F0DCFB7B68012215
:102B240083F846207B68012283F83E207B680122DB
:102B340083F83F207B68012283F840207B680122D0
:102B440083F841207B68012283F842207B680122BC
:102B540083F843207B68012283F844207B680122A8
:102B640083F845207B68012283F83D200023184622
:102B74000837BD4680BD80B582B000AF78607B6801
:102B8400002B01D1012341E07B6893F83D30DBB297
:102B9400002B06D17B68002283F83C20786800F083
:102BA40039F87B68022283F83D207B681A687B68C9
:102BB40004331946104600F08DFB7B68012283F82C
:102BC40046207B68012283F83E207B68012283F83B
:102BD4003F207B68012283F840207B68012283F830
:102BE40041207B68012283F842207B68012283F81C
:102BF40043207B68012283F844207B68012283F808
:102C040045207B68012283F83D20002318460837BD
:102C1400BD4680BD80B483B000AF786000BF0C3780
:102C2400BD4680BC7047000080B584B000AF7860BA
:102C340039603B68002B09D17B6893F83E30DBB2E6
:102C4400012B14BF01230023DBB222E03B68042BD9
:102C540009D17B6893F83F30DBB2012B14BF012309
:102C64000023DBB215E03B68082B09D17B6893F89D
:102C74004030DBB2012B14BF01230023DBB208E098
:102C84007B6893F84130DBB2012B14BF012300238E
:102C9400DBB2002B01D0012368E03B68002B04D198
:102CA4007B68022283F83E2013E03B68042B04D1A6
:102CB4007B68022283F83F200BE03B68082B04D199
:102CC4007B68022283F8402003E07B68022283F8B9
:102CD40041207B681B6801223968184600F0A2FD78
:102CE4007B681B68234A934207D17B681B685A6C34
:102CF4007B681B6842F400425A647B681B681D4A67
:102D0400934218D07B681B68B3F1804F13D07B6863
:102D14001B68194A93420ED07B681B68174A93427A
:102D240009D07B681B68164A934204D07B681B68F1
:102D3400144A934211D17B681B689B6803F0070314
:102D4400FB60FB68062B10D07B681B681A687B68E5
:102D54001B6842F001021A6007E07B681B681A686E
:102D64007B681B6842F001021A6000231846103782
:102D7400BD4680BD00000140000400400008004042
:102D8400000C00400040014080B584B000AF786082
:102D94007B681B68DB68FB607B681B681B69BB6026
:102DA400BB6803F00203002B20D0FB6803F002038E
:102DB400002B1BD07B681B686FF002021A617B68D2
:102DC40001221A777B681B689B6903F00303002BBD
:102DD40003D0786800F063FA05E0786800F056FAEA
:102DE400786800F065FA7B6800221A77BB6803F004
:102DF4000403002B20D0FB6803F00403002B1BD03A
:102E04007B681B686FF004021A617B6802221A77E0
:102E14007B681B689B6903F44073002B03D07868BC
:102E240000F03DFA05E0786800F030FA786800F0C8
:102E34003FFA7B6800221A77BB6803F00803002B73
:102E440020D0FB6803F00803002B1BD07B681B68B1
:102E54006FF008021A617B6804221A777B681B688A
:102E6400DB6903F00303002B03D0786800F017FA42
:102E740005E0786800F00AFA786800F019FA7B68CF
:102E840000221A77BB6803F01003002B20D0FB68E4
:102E940003F01003002B1BD07B681B686FF010023B
:102EA4001A617B6808221A777B681B68DB6903F464
:102EB4004073002B03D0786800F0F1F905E07868DE
:102EC40000F0E4F9786800F0F3F97B6800221A77DF
:102ED400BB6803F00103002B0CD0FB6803F0010373
:102EE400002B07D07B681B686FF001021A617868B9
:102EF40000F0C3F9BB6803F08003002B0CD0FB681F
:102F040003F08003002B07D07B681B686FF08002FE
:102F14001A61786800F01FFDBB6803F04003002BC2
:102F24000CD0FB6803F04003002B07D07B681B68C0
:102F34006FF040021A61786800F0C3F9BB6803F0CF
:102F44002003002B0CD0FB6803F02003002B07D0D8
:102F54007B681B686FF020021A61786800F0F2FC4D
:102F640000BF1037BD4680BD80B586B000AFF860A5
:102F7400B9607A600023FB75FB6893F83C30012B41
:102F840001D10223AEE0FB68012283F83C207B6878
:102F94000C2B00F29F8001A252F823F0D52F0008D9
:102FA400D9300008D9300008D9300008153000089D
:102FB400D9300008D9300008D9300008573000084B
:102FC400D9300008D9300008D930000897300008FB
:102FD400FB681B68B968184600F006FAFB681B68B2
:102FE4009A69FB681B6842F008029A61FB681B68D7
:102FF4009A69FB681B6822F004029A61FB681B68EB
:103004009969BB681A69FB681B680A439A6164E0A2
:10301400FB681B68B968184600F04CFAFB681B682B
:103024009A69FB681B6842F400629A61FB681B683A
:103034009A69FB681B6822F480629A61FB681B68CA
:103044009969BB681B691A02FB681B680A439A6189
:1030540043E0FB681B68B968184600F095FAFB6802
:103064001B68DA69FB681B6842F00802DA61FB68D6
:103074001B68DA69FB681B6822F00402DA61FB68EA
:103084001B68D969BB681A69FB681B680A43DA6163
:1030940023E0FB681B68B968184600F0DFFAFB6898
:1030A4001B68DA69FB681B6842F40062DA61FB683A
:1030B4001B68DA69FB681B6822F48062DA61FB68CA
:1030C4001B68D969BB681B691A02FB681B680A4341
:1030D400DA6102E00123FB7500BFFB68002283F87C
:1030E4003C20FB7D18461837BD4680BD80B584B0B2
:1030F40000AF786039600023FB737B6893F83C3041
:10310400012B01D10223B4E07B68012283F83C2027
:103114007B68022283F83D207B681B689B68BB6048
:10312400BB6823F07703BB60BB6823F47F43BB60B9
:103134007B681B68BA689A603B681B68B3F5005FDC
:103144003ED0B3F5005F00F28780B3F5805F00F0F6
:103154008680B3F5805F7FD8702B1AD0702B7BD814
:10316400602B50D0602B77D8502B3CD0502B73D889
:10317400402B58D0402B6FD8302B64D0302B6BD8D9
:10318400202B60D0202B67D8002B5CD0102B5AD07A
:1031940062E07B6818683B6899683B685A683B68DA
:1031A400DB6800F020FB7B681B689B68BB60BB6826
:1031B40043F07703BB607B681B68BA689A604FE092
:1031C4007B6818683B6899683B685A683B68DB68A9
:1031D40000F009FB7B681B689A687B681B6842F4F3
:1031E40080429A603CE07B6818683B6859683B6899
:1031F400DB681A4600F080FA7B681B685021184689
:1032040000F0D7FA2CE07B6818683B6859683B6883
:10321400DB681A4600F09EFA7B681B68602118463A
:1032240000F0C7FA1CE07B6818683B6859683B6883
:10323400DB681A4600F060FA7B681B684021184678
:1032440000F0B7FA0CE07B681A683B681B68194603
:10325400104600F0AEFA03E00123FB7300E000BF68
:103264007B68012283F83D207B68002283F83C20A0
:10327400FB7B18461037BD4680BD80B483B000AFD9
:10328400786000BF0C37BD4680BC704780B483B003
:1032940000AF786000BF0C37BD4680BC704780B477
:1032A40083B000AF786000BF0C37BD4680BC704768
:1032B40080B483B000AF786000BF0C37BD4680BCDB
:1032C400704780B483B000AF786000BF0C37BD4650
:1032D40080BC704780B485B000AF786039607B688B
:1032E4001B68FB607B68394A93420FD07B68B3F15B
:1032F400804F0BD07B68364A934207D07B68354AAF
:10330400934203D07B68344A934208D1FB6823F08C
:103314007003FB603B685B68FA681343FB607B687F
:103324002A4A93421BD07B68B3F1804F17D07B6845
:10333400274A934213D07B68264A93420FD07B6876
:10334400254A93420BD07B68244A934207D07B687A
:10335400234A934203D07B68224A934208D1FB68F4
:1033640023F44073FB603B68DB68FA681343FB603B
:10337400FB6823F080023B685B691343FB607B6856
:10338400FA681A603B689A687B68DA623B681A6874
:103394007B689A627B680D4A934203D13B681A6941
:1033A4007B681A637B6801225A617B681B6903F09E
:1033B4000103012B05D17B681B6923F001027B68A3
:1033C4001A6100BF1437BD4680BC7047000001403D
:1033D4000004004000080040000C00400040014090
:1033E400004401400048014080B487B000AF7860D9
:1033F40039607B681B6A7B617B681B6A23F001026E
:103404007B681A627B685B683B617B689B69FB60D5
:10341400FB6823F07003FB60FB6823F00303FB608D
:103424003B681B68FA681343FB607B6923F0020363
:103434007B613B689B687A6913437B617B681C4AA8
:1034440093420CD17B6923F008037B613B68DB6802
:103454007A6913437B617B6923F004037B617B6896
:10346400134A934211D13B6923F480733B613B6956
:1034740023F400733B613B685B693A6913433B6126
:103484003B689B693A6913433B617B683A695A60BC
:103494007B68FA689A613B685A687B685A637B6800
:1034A4007A691A6200BF1C37BD4680BC704700BFF2
:1034B4000000014080B487B000AF786039607B6859
:1034C4001B6A7B617B681B6A23F010027B681A62AB
:1034D4007B685B683B617B689B69FB60FB6823F4EA
:1034E400E043FB60FB6823F44073FB603B681B68AC
:1034F4001B02FA681343FB607B6923F020037B61A2
:103504003B689B681B017A6913437B617B681D4A96
:1035140093420DD17B6923F080037B613B68DB68B8
:103524001B017A6913437B617B6923F040037B6150
:103534007B68144A934213D13B6923F480633B6153
:103544003B6923F400633B613B685B699B003A6918
:1035540013433B613B689B699B003A6913433B619E
:103564007B683A695A607B68FA689A613B685A6872
:103574007B689A637B687A691A6200BF1C37BD4610
:1035840080BC70470000014080B487B000AF786011
:1035940039607B681B6A7B617B681B6A23F48072D9
:1035A4007B681A627B685B683B617B68DB69FB60F4
:1035B400FB6823F07003FB60FB6823F00303FB60EC
:1035C4003B681B68FA681343FB607B6923F4007350
:1035D4007B613B689B681B027A6913437B617B6850
:1035E4001D4A93420DD17B6923F400637B613B68E0
:1035F400DB681B027A6913437B617B6923F4806374
:103604007B617B68144A934213D13B6923F4805352
:103614003B613B6923F400533B613B685B691B01DD
:103624003A6913433B613B689B691B013A69134345
:103634003B617B683A695A607B68FA68DA613B6887
:103644005A687B68DA637B687A691A6200BF1C3740
:10365400BD4680BC704700BF0000014080B487B005
:1036640000AF786039607B681B6A3B617B681B6ACA
:1036740023F480527B681A627B685B687B617B6899
:10368400DB69FB60FB6823F4E043FB60FB6823F425
:103694004073FB603B681B681B02FA681343FB60C2
:1036A4003B6923F400533B613B689B681B033A6905
:1036B40013433B617B680F4A934209D17B6923F42E
:1036C40080437B613B685B699B017A6913437B613F
:1036D4007B687A695A607B68FA68DA613B685A6881
:1036E4007B681A647B683A691A6200BF1C37BD465E
:1036F40080BC70470000014080B487B000AFF86020
:10370400B9607A60FB681B6A7B61FB681B6A23F003
:103714000102FB681A62FB689B693B613B6923F009
:10372400F0033B617B681B013A6913433B617B698E
:1037340023F00A037B617A69BB6813437B61FB68EE
:103744003A699A61FB687A691A6200BF1C37BD4600
:1037540080BC704780B487B000AFF860B9607A600D
:10376400FB681B6A7B61FB681B6A23F01002FB6821
:103774001A62FB689B693B613B6923F470433B61BC
:103784007B681B033A6913433B617B6923F0A00305
:103794007B61BB681B017A6913437B61FB683A69EF
:1037A4009A61FB687A691A6200BF1C37BD4680BC07
:1037B400704780B485B000AF786039607B689B68DF
:1037C400FB60FB6823F07003FB603A68FB681343FB
:1037D40043F00703FB607B68FA689A6000BF143704
:1037E400BD4680BC704780B487B000AFF860B96054
:1037F4007A603B60FB689B687B617B6923F47F4351
:103804007B613B681A027B681A43BB6813437A697D
:1038140013437B61FB687A699A6000BF1C37BD461D
:1038240080BC704780B487B000AFF860B9607A603C
:10383400BB6803F01F03012202FA03F37B61FB68F8
:103844001A6A7B69DB431A40FB681A62FB681A6ACE
:10385400BB6803F01F03796801FA03F31A43FB689A
:103864001A6200BF1C37BD4680BC704780B485B067
:1038740000AF786039607B6893F83C30012B01D14C
:10388400022350E07B68012283F83C207B680222FB
:1038940083F83D207B681B685B68FB607B681B6862
:1038A4009B68BB60FB6823F07003FB603B681B688C
:1038B400FA681343FB607B681B68FA685A607B688C
:1038C4001B681B4A934218D07B681B68B3F1804F76
:1038D40013D07B681B68174A93420ED07B681B6821
:1038E400154A934209D07B681B68144A934204D05A
:1038F4007B681B68124A93420CD1BB6823F0800397
:10390400BB603B685B68BA681343BB607B681B6839
:10391400BA689A607B68012283F83D207B680022A4
:1039240083F83C20002318461437BD4680BC7047FA
:10393400000001400004004000080040000C00406A
:103944000040014080B483B000AF786000BF0C3702
:10395400BD4680BC704780B483B000AF786000BFC0
:103964000C37BD4680BC704702440346934200D1E5
:10397400704703F8011BF9E770B50D4D0D4C641B3E
:10398400A4100026A64209D10B4D0C4C00F018F8E7
:10399400641BA4100026A64205D170BD55F8043B53
:1039A40098470136EEE755F8043B98470136F2E7AD
:1039B400F4390008F4390008F4390008F83900082B
:1039C400F8B500BFF8BC08BC9E467047F8B500BF08
:0839D400F8BC08BC9E467047D8
:1039DC0000000000000000000102030406070809B3
:0839EC0088D6FF7F01000000F6
:0439F400B90100080D
:0439F800950100082D
:0C39FC000024F400100000000100000096
:0400000508001B4193
:00000001FF
